:020000040800F2
:100000000040002045020008950200089502000803
:1000100000000000000000000000000000000000E0
:100020000000000000000000000000009502000831
:100030000000000000000000950200089D04000878
:100040009502000895020008950200089502000834
:100050009502000895020008950200089502000824
:100060009502000895020008950200089502000814
:100070009502000895020008950200089502000804
:1000800095020008950200089502000895020008F4
:1000900095020008950200089502000895020008E4
:1000A00095020008950200089502000895020008D4
:1000B0009502000895020008950200080000000063
:1000C0000448054B10B5834203D0044B002B00D0ED
:1000D000984710BD00000020000000200000000034
:1000E00006480749091A8B10C90FC91810B54910DD
:1000F00003D0044B002B00D0984710BD0000002017
:10010000000000200000000010B5074C2378002BF1
:1001100009D1FFF7D5FF054B002B02D0044800E0C2
:1001200000BF0123237010BD00000020000000006C
:10013000CC040008054B10B5002B03D0044905483A
:1001400000E000BFFFF7CCFF10BDC046000000007C
:1001500004000020CC04000870B50C4D0C4E761B3A
:10016000B61005D0002408CD01349847A642FAD134
:1001700000F0ACF9074D084E761BB61005D00024F0
:1001800008CD01349847A642FAD170BDE4040008B6
:10019000E4040008E4040008E8040008F0B50500E1
:1001A00083074AD0541E002A44D0CEB20300032253
:1001B00002E00135013C3DD301332E701342F8D1EA
:1001C000032C2FD9FF220A40150215432A04154398
:1001D0000F2C35D92700103F3F093E01B4461E00C1
:1001E0001A0010366644156055609560D56010326F
:1001F000B242F8D10F260C2201373F012640DB190D
:100200003700224217D03E1FB608B400A4461A0099
:100210001C1D644420C2A242FCD103240136B60056
:100220009B193C40002C05D0C9B21C191970013330
:100230009C42FBD1F0BD3400F4E714000300BFE79B
:100240002700E0E70D4885460D480E490E4A002379
:1002500002E0D458C4500433C4188C42F9D30B4A7A
:100260000B4C002301E013600432A242FBD300F0E8
:1002700063F8FFF771FF00F0EBF8FEE700400020A5
:100280000000002000000020EC0400080000002016
:1002900020000020FEE7F7B5002302000C68009361
:1002A0002000009BD84000D1FEBD0120009B98405B
:1002B00023000340044231D0486803250190180010
:1002C00058434543019EED43771E012F0BD88F689D
:1002D000966847432E40374397605768CE68A743D8
:1002E00074433C4354600C69D76844432F403C43FB
:1002F000D460019C022C0BD14F69FF2B11D8030055
:100300000F2643435E437B43146AB4431C43146289
:1003100013681D40019B584305431560009B013342
:10032000BCE70F261B0A5B435B435E437B43546A77
:10033000B4431C435462EBE77047000001222C4B8E
:1003400019680A431A60022219681142FCD003217D
:100350005A688A435A600C2259681142FCD1F02134
:100360005A688A435A605A6822490A405A601A6B8E
:1003700021490A401A638022196852020A431A600E
:100380008022920219681142FCD01A681B490A4067
:100390001A608022920419681142FCD15A681849E7
:1003A0001140882252030A430F215A60DA6A8A43B5
:1003B000DA628022196852040A431A608022920489
:1003C00019681142FCD003215A688A4311000222A5
:1003D0000A430C215A605A680A40082AFBD10121BD
:1003E0001A688A431A60022219681142FCD17047C8
:1003F00000100240FFF8FFFFFFFFFCFFFFFFFFFEC2
:10040000FF7FC2FF8020104A70B55169000301438D
:100410005161536988B0034008220193002106A866
:1004200000250726019BFFF7B9FE0123074C02A90F
:1004300020000296039304950595FFF72CFFA66212
:10044000A56108B070BDC046001002400008004819
:1004500007B5FFF773FFFFF7D5FFC0210B4A0C4B21
:100460000C485360036A09061B021B0A0B43036214
:10047000072100239360116007490193019A8A4282
:10048000FBDC019A01320192F8E7C04610E000E07F
:100490007FBB000000ED00E09F860100FA21094BC0
:1004A00089001A6801321A608A4204D100220121AF
:1004B0001A60054A91611B680A2B02D10122024B86
:1004C0009A6270471C00002000080048F8B5C0463A
:1004D000F8BC08BC9E467047F8B5C046F8BC08BCDE
:0404E0009E4670477D
:0404E40035010008D6
:0404E80009010008FE
:0400000508000245A8
:00000001FF
